{
  "contractName": "Pricing",
  "abi": [
    {
      "anonymous": false,
      "inputs": [
        {
          "indexed": false,
          "internalType": "string",
          "name": "productType",
          "type": "string"
        },
        {
          "indexed": false,
          "internalType": "uint256",
          "name": "activity",
          "type": "uint256"
        },
        {
          "indexed": false,
          "internalType": "uint256",
          "name": "buyers",
          "type": "uint256"
        }
      ],
      "name": "MarketActivityUpdated",
      "type": "event"
    },
    {
      "anonymous": false,
      "inputs": [
        {
          "indexed": true,
          "internalType": "address",
          "name": "user",
          "type": "address"
        },
        {
          "indexed": false,
          "internalType": "string",
          "name": "cohort",
          "type": "string"
        }
      ],
      "name": "UserCohortUpdated",
      "type": "event"
    },
    {
      "anonymous": false,
      "inputs": [
        {
          "indexed": true,
          "internalType": "address",
          "name": "user",
          "type": "address"
        },
        {
          "indexed": false,
          "internalType": "string",
          "name": "productType",
          "type": "string"
        },
        {
          "indexed": false,
          "internalType": "uint256",
          "name": "newPrice",
          "type": "uint256"
        }
      ],
      "name": "UserPriceUpdated",
      "type": "event"
    },
    {
      "anonymous": false,
      "inputs": [
        {
          "indexed": true,
          "internalType": "address",
          "name": "user",
          "type": "address"
        },
        {
          "indexed": false,
          "internalType": "string",
          "name": "tariffPlan",
          "type": "string"
        }
      ],
      "name": "UserTariffPlanUpdated",
      "type": "event"
    },
    {
      "inputs": [
        {
          "internalType": "string",
          "name": "_productType",
          "type": "string"
        },
        {
          "internalType": "uint256",
          "name": "_price",
          "type": "uint256"
        }
      ],
      "name": "setBasePrice",
      "outputs": [],
      "stateMutability": "nonpayable",
      "type": "function"
    },
    {
      "inputs": [
        {
          "internalType": "uint256",
          "name": "_purchaseAmount",
          "type": "uint256"
        },
        {
          "internalType": "string",
          "name": "_productType",
          "type": "string"
        }
      ],
      "name": "updatePurchaseData",
      "outputs": [],
      "stateMutability": "nonpayable",
      "type": "function"
    },
    {
      "inputs": [
        {
          "internalType": "address",
          "name": "user",
          "type": "address"
        },
        {
          "internalType": "string",
          "name": "_productType",
          "type": "string"
        }
      ],
      "name": "calculatePrice",
      "outputs": [
        {
          "internalType": "uint256",
          "name": "",
          "type": "uint256"
        }
      ],
      "stateMutability": "view",
      "type": "function",
      "constant": true
    },
    {
      "inputs": [
        {
          "internalType": "address",
          "name": "user",
          "type": "address"
        }
      ],
      "name": "assignTariffPlan",
      "outputs": [
        {
          "internalType": "string",
          "name": "",
          "type": "string"
        }
      ],
      "stateMutability": "view",
      "type": "function",
      "constant": true
    },
    {
      "inputs": [
        {
          "internalType": "address",
          "name": "user",
          "type": "address"
        }
      ],
      "name": "assignCohort",
      "outputs": [
        {
          "internalType": "string",
          "name": "",
          "type": "string"
        }
      ],
      "stateMutability": "view",
      "type": "function",
      "constant": true
    },
    {
      "inputs": [
        {
          "internalType": "address",
          "name": "user",
          "type": "address"
        },
        {
          "internalType": "string",
          "name": "_productType",
          "type": "string"
        }
      ],
      "name": "calculateUtility",
      "outputs": [
        {
          "internalType": "uint256",
          "name": "",
          "type": "uint256"
        }
      ],
      "stateMutability": "view",
      "type": "function",
      "constant": true
    },
    {
      "inputs": [
        {
          "internalType": "address",
          "name": "user",
          "type": "address"
        },
        {
          "internalType": "string",
          "name": "_productType",
          "type": "string"
        }
      ],
      "name": "calculateDiscount",
      "outputs": [
        {
          "internalType": "uint256",
          "name": "",
          "type": "uint256"
        }
      ],
      "stateMutability": "view",
      "type": "function",
      "constant": true
    },
    {
      "inputs": [
        {
          "internalType": "address",
          "name": "user",
          "type": "address"
        },
        {
          "internalType": "string",
          "name": "_productType",
          "type": "string"
        }
      ],
      "name": "getUserPrice",
      "outputs": [
        {
          "internalType": "uint256",
          "name": "",
          "type": "uint256"
        }
      ],
      "stateMutability": "view",
      "type": "function",
      "constant": true
    },
    {
      "inputs": [
        {
          "internalType": "string",
          "name": "_productType",
          "type": "string"
        }
      ],
      "name": "getBasePrice",
      "outputs": [
        {
          "internalType": "uint256",
          "name": "",
          "type": "uint256"
        }
      ],
      "stateMutability": "view",
      "type": "function",
      "constant": true
    },
    {
      "inputs": [
        {
          "internalType": "address",
          "name": "user",
          "type": "address"
        }
      ],
      "name": "getUserPurchaseHistory",
      "outputs": [
        {
          "components": [
            {
              "internalType": "uint256",
              "name": "timestamp",
              "type": "uint256"
            },
            {
              "internalType": "uint256",
              "name": "amount",
              "type": "uint256"
            },
            {
              "internalType": "string",
              "name": "product",
              "type": "string"
            }
          ],
          "internalType": "struct Pricing.Purchase[]",
          "name": "",
          "type": "tuple[]"
        }
      ],
      "stateMutability": "view",
      "type": "function",
      "constant": true
    }
  ],
  "bytecode": "0x6080604052606460035534801561001557600080fd5b506127ca806100256000396000f3fe608060405234801561001057600080fd5b506004361061009e5760003560e01c8063a96068bc11610066578063a96068bc1461017f578063b342a409146101af578063d1381012146101cb578063f3c34185146101fb578063fa21f9d11461022b5761009e565b806316702bbf146100a357806335c38d1e146100bf578063374d211f146100ef5780638df26e361461011f57806391cf7a541461014f575b600080fd5b6100bd60048036038101906100b89190611f57565b61025b565b005b6100d960048036038101906100d49190611e99565b610282565b6040516100e691906122ac565b60405180910390f35b61010960048036038101906101049190611e99565b6103c8565b60405161011691906122ce565b60405180910390f35b61013960048036038101906101349190611ec2565b61076e565b604051610146919061237e565b60405180910390f35b61016960048036038101906101649190611e99565b610bea565b60405161017691906122ce565b60405180910390f35b61019960048036038101906101949190611ec2565b610fdb565b6040516101a6919061237e565b60405180910390f35b6101c960048036038101906101c49190611fab565b611041565b005b6101e560048036038101906101e09190611ec2565b6113d8565b6040516101f2919061237e565b60405180910390f35b61021560048036038101906102109190611f16565b6117ee565b604051610222919061237e565b60405180910390f35b61024560048036038101906102409190611ec2565b611816565b604051610252919061237e565b60405180910390f35b8060028360405161026c9190612295565b9081526020016040518091039020819055505050565b60606000808373ffffffffffffffffffffffffffffffffffffffff1673ffffffffffffffffffffffffffffffffffffffff168152602001908152602001600020600601805480602002602001604051908101604052809291908181526020016000905b828210156103bd5783829060005260206000209060030201604051806060016040529081600082015481526020016001820154815260200160028201805461032c9061261e565b80601f01602080910402602001604051908101604052809291908181526020018280546103589061261e565b80156103a55780601f1061037a576101008083540402835291602001916103a5565b820191906000526020600020905b81548152906001019060200180831161038857829003601f168201915b505050505081525050815260200190600101906102e5565b505050509050919050565b606060008060008473ffffffffffffffffffffffffffffffffffffffff1673ffffffffffffffffffffffffffffffffffffffff1681526020019081526020016000206040518060e00160405290816000820154815260200160018201548152602001600282015481526020016003820180546104439061261e565b80601f016020809104026020016040519081016040528092919081815260200182805461046f9061261e565b80156104bc5780601f10610491576101008083540402835291602001916104bc565b820191906000526020600020905b81548152906001019060200180831161049f57829003601f168201915b505050505081526020016004820180546104d59061261e565b80601f01602080910402602001604051908101604052809291908181526020018280546105019061261e565b801561054e5780601f106105235761010080835404028352916020019161054e565b820191906000526020600020905b81548152906001019060200180831161053157829003601f168201915b505050505081526020016005820154815260200160068201805480602002602001604051908101604052809291908181526020016000905b8282101561065e578382906000526020600020906003020160405180606001604052908160008201548152602001600182015481526020016002820180546105cd9061261e565b80601f01602080910402602001604051908101604052809291908181526020018280546105f99061261e565b80156106465780601f1061061b57610100808354040283529160200191610646565b820191906000526020600020905b81548152906001019060200180831161062957829003601f168201915b50505050508152505081526020019060010190610586565b5050505081525050905069010f0cf064dd5920000081604001511180156106895750600a8160200151115b8015610699575060058160a00151115b156106dc576040518060400160405280600b81526020017f486967685370656e646572000000000000000000000000000000000000000000815250915050610769565b683635c9adc5dea000008160400151111561072f576040518060400160405280600d81526020017f4672657175656e74427579657200000000000000000000000000000000000000815250915050610769565b6040518060400160405280600a81526020017f4c6f775370656e646572000000000000000000000000000000000000000000008152509150505b919050565b6000806000808573ffffffffffffffffffffffffffffffffffffffff1673ffffffffffffffffffffffffffffffffffffffff1681526020019081526020016000206040518060e00160405290816000820154815260200160018201548152602001600282015481526020016003820180546107e89061261e565b80601f01602080910402602001604051908101604052809291908181526020018280546108149061261e565b80156108615780601f1061083657610100808354040283529160200191610861565b820191906000526020600020905b81548152906001019060200180831161084457829003601f168201915b5050505050815260200160048201805461087a9061261e565b80601f01602080910402602001604051908101604052809291908181526020018280546108a69061261e565b80156108f35780601f106108c8576101008083540402835291602001916108f3565b820191906000526020600020905b8154815290600101906020018083116108d657829003601f168201915b505050505081526020016005820154815260200160068201805480602002602001604051908101604052809291908181526020016000905b82821015610a03578382906000526020600020906003020160405180606001604052908160008201548152602001600182015481526020016002820180546109729061261e565b80601f016020809104026020016040519081016040528092919081815260200182805461099e9061261e565b80156109eb5780601f106109c0576101008083540402835291602001916109eb565b820191906000526020600020905b8154815290600101906020018083116109ce57829003601f168201915b5050505050815250508152602001906001019061092b565b505050508152505090506000816060015190506000600285604051610a289190612295565b908152602001604051809103902054905060008111610a7c576040517f08c379a0000000000000000000000000000000000000000000000000000000008152600401610a739061235e565b60405180910390fd5b60006040518060400160405280600b81526020017f486967685370656e6465720000000000000000000000000000000000000000008152508051906020012083805190602001201415610ae9576064601483610ad89190612512565b610ae291906124e1565b9050610bdd565b6040518060400160405280600d81526020017f4672657175656e744275796572000000000000000000000000000000000000008152508051906020012083805190602001201415610b54576064600f83610b439190612512565b610b4d91906124e1565b9050610bdc565b6040518060400160405280600a81526020017f4c6f775370656e646572000000000000000000000000000000000000000000008152508051906020012083805190602001201415610bbf576064600a83610bae9190612512565b610bb891906124e1565b9050610bdb565b6064600583610bce9190612512565b610bd891906124e1565b90505b5b5b8094505050505092915050565b606060008060008473ffffffffffffffffffffffffffffffffffffffff1673ffffffffffffffffffffffffffffffffffffffff1681526020019081526020016000206040518060e0016040529081600082015481526020016001820154815260200160028201548152602001600382018054610c659061261e565b80601f0160208091040260200160405190810160405280929190818152602001828054610c919061261e565b8015610cde5780601f10610cb357610100808354040283529160200191610cde565b820191906000526020600020905b815481529060010190602001808311610cc157829003601f168201915b50505050508152602001600482018054610cf79061261e565b80601f0160208091040260200160405190810160405280929190818152602001828054610d239061261e565b8015610d705780601f10610d4557610100808354040283529160200191610d70565b820191906000526020600020905b815481529060010190602001808311610d5357829003601f168201915b505050505081526020016005820154815260200160068201805480602002602001604051908101604052809291908181526020016000905b82821015610e8057838290600052602060002090600302016040518060600160405290816000820154815260200160018201548152602001600282018054610def9061261e565b80601f0160208091040260200160405190810160405280929190818152602001828054610e1b9061261e565b8015610e685780601f10610e3d57610100808354040283529160200191610e68565b820191906000526020600020905b815481529060010190602001808311610e4b57829003601f168201915b50505050508152505081526020019060010190610da8565b5050505081525050905069010f0cf064dd592000008160400151118015610eab5750600a8160200151115b8015610ebb575060058160a00151115b15610efe576040518060400160405280600781526020017f5072656d69756d00000000000000000000000000000000000000000000000000815250915050610fd6565b683635c9adc5dea0000081604001511115610f51576040518060400160405280600881526020017f5374616e64617264000000000000000000000000000000000000000000000000815250915050610fd6565b600581602001511115610f9c576040518060400160405280600881526020017f4672657175656e74000000000000000000000000000000000000000000000000815250915050610fd6565b6040518060400160405280600581526020017f42617369630000000000000000000000000000000000000000000000000000008152509150505b919050565b6000600160008473ffffffffffffffffffffffffffffffffffffffff1673ffffffffffffffffffffffffffffffffffffffff1681526020019081526020016000208260405161102a9190612295565b908152602001604051809103902054905092915050565b60008060003373ffffffffffffffffffffffffffffffffffffffff1673ffffffffffffffffffffffffffffffffffffffff168152602001908152602001600020905042816000018190555060018160010160008282546110a1919061248b565b92505081905550828160020160008282546110bc919061248b565b925050819055506110cd8183611bca565b80600601604051806060016040528042815260200185815260200184815250908060018154018082558091505060019003906000526020600020906003020160009091909190915060008201518160000155602082015181600101556040820151816002019080519060200190611145929190611d64565b50505060006111543384611816565b905080600160003373ffffffffffffffffffffffffffffffffffffffff1673ffffffffffffffffffffffffffffffffffffffff168152602001908152602001600020846040516111a49190612295565b90815260200160405180910390208190555060006111c133610bea565b9050808360040190805190602001906111db929190611d64565b5060006111e7336103c8565b905080846003019080519060200190611201929190611d64565b50856004866040516112139190612295565b90815260200160405180910390206000828254611230919061248b565b9250508190555060016005866040516112499190612295565b90815260200160405180910390206000828254611266919061248b565b925050819055503373ffffffffffffffffffffffffffffffffffffffff167fcd3cd59302ac06fff4a19e2aa041fd7162a01e88c312c73fe3e2e15adcf4eada86856040516112b59291906122f0565b60405180910390a23373ffffffffffffffffffffffffffffffffffffffff167fa8e066f9232eec429fa206710898cf88a2bf1dd24f7187514a0e8064efa125af8360405161130391906122ce565b60405180910390a23373ffffffffffffffffffffffffffffffffffffffff167f800549156fe474cac24a44817932b76c29bd81ee1d22485e9f5a7fc139b94d0b8260405161135191906122ce565b60405180910390a27f079e61ff5e4ce69a98a5a697a9688d9420ae2e0b3ef50fb94b01360cba5973c58560048760405161138b9190612295565b9081526020016040518091039020546005886040516113aa9190612295565b9081526020016040518091039020546040516113c893929190612320565b60405180910390a1505050505050565b6000806000808573ffffffffffffffffffffffffffffffffffffffff1673ffffffffffffffffffffffffffffffffffffffff1681526020019081526020016000206040518060e00160405290816000820154815260200160018201548152602001600282015481526020016003820180546114529061261e565b80601f016020809104026020016040519081016040528092919081815260200182805461147e9061261e565b80156114cb5780601f106114a0576101008083540402835291602001916114cb565b820191906000526020600020905b8154815290600101906020018083116114ae57829003601f168201915b505050505081526020016004820180546114e49061261e565b80601f01602080910402602001604051908101604052809291908181526020018280546115109061261e565b801561155d5780601f106115325761010080835404028352916020019161155d565b820191906000526020600020905b81548152906001019060200180831161154057829003601f168201915b505050505081526020016005820154815260200160068201805480602002602001604051908101604052809291908181526020016000905b8282101561166d578382906000526020600020906003020160405180606001604052908160008201548152602001600182015481526020016002820180546115dc9061261e565b80601f01602080910402602001604051908101604052809291908181526020018280546116089061261e565b80156116555780601f1061162a57610100808354040283529160200191611655565b820191906000526020600020905b81548152906001019060200180831161163857829003601f168201915b50505050508152505081526020019060010190611595565b5050505081525050905060006002846040516116899190612295565b9081526020016040518091039020549050600081116116dd576040517f08c379a00000000000000000000000000000000000000000000000000000000081526004016116d49061235e565b60405180910390fd5b6000806005866040516116f09190612295565b9081526020016040518091039020541161170b57600161172b565b60058560405161171b9190612295565b9081526020016040518091039020545b60048660405161173b9190612295565b90815260200160405180910390205461175491906124e1565b905060006064826003546117689190612512565b61177291906124e1565b905060008460200151600a611787919061248b565b600a856117949190612512565b61179e91906124e1565b905060006301e133808660000151426117b7919061256c565b6117c191906124e1565b905060008184846117d2919061248b565b6117dc919061256c565b90508097505050505050505092915050565b60006002826040516118009190612295565b9081526020016040518091039020549050919050565b6000806000808573ffffffffffffffffffffffffffffffffffffffff1673ffffffffffffffffffffffffffffffffffffffff1681526020019081526020016000206040518060e00160405290816000820154815260200160018201548152602001600282015481526020016003820180546118909061261e565b80601f01602080910402602001604051908101604052809291908181526020018280546118bc9061261e565b80156119095780601f106118de57610100808354040283529160200191611909565b820191906000526020600020905b8154815290600101906020018083116118ec57829003601f168201915b505050505081526020016004820180546119229061261e565b80601f016020809104026020016040519081016040528092919081815260200182805461194e9061261e565b801561199b5780601f106119705761010080835404028352916020019161199b565b820191906000526020600020905b81548152906001019060200180831161197e57829003601f168201915b505050505081526020016005820154815260200160068201805480602002602001604051908101604052809291908181526020016000905b82821015611aab57838290600052602060002090600302016040518060600160405290816000820154815260200160018201548152602001600282018054611a1a9061261e565b80601f0160208091040260200160405190810160405280929190818152602001828054611a469061261e565b8015611a935780601f10611a6857610100808354040283529160200191611a93565b820191906000526020600020905b815481529060010190602001808311611a7657829003601f168201915b505050505081525050815260200190600101906119d3565b505050508152505090506000600284604051611ac79190612295565b908152602001604051809103902054905060008111611b1b576040517f08c379a0000000000000000000000000000000000000000000000000000000008152600401611b129061235e565b60405180910390fd5b6000826000015142611b2d919061256c565b905060008360200151905060008460400151905060008560a0015190506000611b5585611c97565b90506000611b6285611cc9565b90506000611b6f85611cf7565b90506000611b7c85611d36565b90506103e8818385878d611b909190612512565b611b9a9190612512565b611ba49190612512565b611bae9190612512565b611bb891906124e1565b9a505050505050505050505092915050565b60006001905060005b8360060180549050811015611c6e578280519060200120846006018281548110611c26577f4e487b7100000000000000000000000000000000000000000000000000000000600052603260045260246000fd5b9060005260206000209060030201600201604051611c44919061227e565b60405180910390201415611c5b5760009150611c6e565b8080611c6690612650565b915050611bd3565b508015611c92576001836005016000828254611c8a919061248b565b925050819055505b505050565b600062093a808210611cbc5762278d008210611cb4576001611cb7565b60025b611cbf565b60035b60ff169050919050565b6000600a8211611cea5760058211611ce2576001611ce5565b60025b611ced565b60035b60ff169050919050565b600069010f0cf064dd592000008211611d2957683635c9adc5dea000008211611d21576003611d24565b60025b611d2c565b60015b60ff169050919050565b600060058211611d575760028211611d4f576001611d52565b60025b611d5a565b60035b60ff169050919050565b828054611d709061261e565b90600052602060002090601f016020900481019282611d925760008555611dd9565b82601f10611dab57805160ff1916838001178555611dd9565b82800160010185558215611dd9579182015b82811115611dd8578251825591602001919060010190611dbd565b5b509050611de69190611dea565b5090565b5b80821115611e03576000816000905550600101611deb565b5090565b6000611e1a611e15846123ca565b612399565b905082815260208101848484011115611e3257600080fd5b611e3d8482856125dc565b509392505050565b600081359050611e5481612766565b92915050565b600082601f830112611e6b57600080fd5b8135611e7b848260208601611e07565b91505092915050565b600081359050611e938161277d565b92915050565b600060208284031215611eab57600080fd5b6000611eb984828501611e45565b91505092915050565b60008060408385031215611ed557600080fd5b6000611ee385828601611e45565b925050602083013567ffffffffffffffff811115611f0057600080fd5b611f0c85828601611e5a565b9150509250929050565b600060208284031215611f2857600080fd5b600082013567ffffffffffffffff811115611f4257600080fd5b611f4e84828501611e5a565b91505092915050565b60008060408385031215611f6a57600080fd5b600083013567ffffffffffffffff811115611f8457600080fd5b611f9085828601611e5a565b9250506020611fa185828601611e84565b9150509250929050565b60008060408385031215611fbe57600080fd5b6000611fcc85828601611e84565b925050602083013567ffffffffffffffff811115611fe957600080fd5b611ff585828601611e5a565b9150509250929050565b600061200b8383612210565b905092915050565b600061201e8261241f565b6120288185612442565b93508360208202850161203a856123fa565b8060005b8581101561207657848403895281516120578582611fff565b945061206283612435565b925060208a0199505060018101905061203e565b50829750879550505050505092915050565b600081546120958161261e565b61209f8186612453565b945060018216600081146120ba57600181146120cb576120fe565b60ff198316865281860193506120fe565b6120d48561240a565b60005b838110156120f6578154818901526001820191506020810190506120d7565b838801955050505b50505092915050565b60006121128261242a565b61211c818561245e565b935061212c8185602086016125eb565b61213581612755565b840191505092915050565b600061214b8261242a565b612155818561246f565b93506121658185602086016125eb565b61216e81612755565b840191505092915050565b60006121848261242a565b61218e8185612480565b935061219e8185602086016125eb565b80840191505092915050565b60006121b7602b8361246f565b91507f4261736520707269636520666f7220746869732070726f64756374207479706560008301527f206973206e6f74207365740000000000000000000000000000000000000000006020830152604082019050919050565b60006060830160008301516122286000860182612260565b50602083015161223b6020860182612260565b50604083015184820360408601526122538282612107565b9150508091505092915050565b612269816125d2565b82525050565b612278816125d2565b82525050565b600061228a8284612088565b915081905092915050565b60006122a18284612179565b915081905092915050565b600060208201905081810360008301526122c68184612013565b905092915050565b600060208201905081810360008301526122e88184612140565b905092915050565b6000604082019050818103600083015261230a8185612140565b9050612319602083018461226f565b9392505050565b6000606082019050818103600083015261233a8186612140565b9050612349602083018561226f565b612356604083018461226f565b949350505050565b60006020820190508181036000830152612377816121aa565b9050919050565b6000602082019050612393600083018461226f565b92915050565b6000604051905081810181811067ffffffffffffffff821117156123c0576123bf612726565b5b8060405250919050565b600067ffffffffffffffff8211156123e5576123e4612726565b5b601f19601f8301169050602081019050919050565b6000819050602082019050919050565b60008190508160005260206000209050919050565b600081519050919050565b600081519050919050565b6000602082019050919050565b600082825260208201905092915050565b600081905092915050565b600082825260208201905092915050565b600082825260208201905092915050565b600081905092915050565b6000612496826125d2565b91506124a1836125d2565b9250827fffffffffffffffffffffffffffffffffffffffffffffffffffffffffffffffff038211156124d6576124d5612699565b5b828201905092915050565b60006124ec826125d2565b91506124f7836125d2565b925082612507576125066126c8565b5b828204905092915050565b600061251d826125d2565b9150612528836125d2565b9250817fffffffffffffffffffffffffffffffffffffffffffffffffffffffffffffffff048311821515161561256157612560612699565b5b828202905092915050565b6000612577826125d2565b9150612582836125d2565b92508282101561259557612594612699565b5b828203905092915050565b60006125ab826125b2565b9050919050565b600073ffffffffffffffffffffffffffffffffffffffff82169050919050565b6000819050919050565b82818337600083830152505050565b60005b838110156126095780820151818401526020810190506125ee565b83811115612618576000848401525b50505050565b6000600282049050600182168061263657607f821691505b6020821081141561264a576126496126f7565b5b50919050565b600061265b826125d2565b91507fffffffffffffffffffffffffffffffffffffffffffffffffffffffffffffffff82141561268e5761268d612699565b5b600182019050919050565b7f4e487b7100000000000000000000000000000000000000000000000000000000600052601160045260246000fd5b7f4e487b7100000000000000000000000000000000000000000000000000000000600052601260045260246000fd5b7f4e487b7100000000000000000000000000000000000000000000000000000000600052602260045260246000fd5b7f4e487b7100000000000000000000000000000000000000000000000000000000600052604160045260246000fd5b6000601f19601f8301169050919050565b61276f816125a0565b811461277a57600080fd5b50565b612786816125d2565b811461279157600080fd5b5056fea2646970667358221220a11864868c937f5dfccfa56d99470b15cfd62ece58fd68a45e62c94c49e84a8464736f6c63430008000033",
  "immutableReferences": {},
  "source": "// SPDX-License-Identifier: GPL-3.0\r\npragma solidity ^0.8.0;\r\n\r\ncontract Pricing {\r\n    struct Purchase {\r\n        uint timestamp;  //  \r\n        uint amount;     //  \r\n        string product;  //  \r\n    }\r\n\r\n    struct User {\r\n        uint lastPurchaseTimestamp; //   \r\n        uint purchaseFrequency;     //  \r\n        uint totalSpent;            //   \r\n        string cohort;              //  \r\n        string tariffPlan;          //   \r\n        uint productVariety;        //  \r\n        Purchase[] purchaseHistory; //  \r\n    }\r\n\r\n    //     \r\n    mapping(address => User) private users;\r\n\r\n    //     \r\n    mapping(address => mapping(string => uint)) private userPrices;\r\n\r\n    //        \r\n    mapping(string => uint) private basePrices;\r\n\r\n    //      \r\n    uint private marketActivityFactor = 100;\r\n    mapping(string => uint) private totalProductActivity;\r\n    mapping(string => uint) private productBuyersCount;\r\n\r\n    // \r\n    event UserPriceUpdated(address indexed user, string productType, uint newPrice);\r\n    event UserCohortUpdated(address indexed user, string cohort);\r\n    event UserTariffPlanUpdated(address indexed user, string tariffPlan);\r\n    event MarketActivityUpdated(string productType, uint activity, uint buyers);\r\n\r\n    //       \r\n    function setBasePrice(string memory _productType, uint _price) external {\r\n        basePrices[_productType] = _price;\r\n    }\r\n\r\n    //       \r\n    function updatePurchaseData(uint _purchaseAmount, string memory _productType) external {\r\n        User storage user = users[msg.sender];\r\n\r\n        //    \r\n        user.lastPurchaseTimestamp = block.timestamp;\r\n\r\n        //       \r\n        user.purchaseFrequency += 1;\r\n        user.totalSpent += _purchaseAmount;\r\n\r\n        //   \r\n        updateProductVariety(user, _productType);\r\n\r\n        //     \r\n        user.purchaseHistory.push(Purchase(block.timestamp, _purchaseAmount, _productType));\r\n\r\n        //   \r\n        uint newPrice = calculatePrice(msg.sender, _productType);\r\n        userPrices[msg.sender][_productType] = newPrice;\r\n\r\n        //   \r\n        string memory userTariffPlan = assignTariffPlan(msg.sender);\r\n        user.tariffPlan = userTariffPlan;\r\n\r\n        //  \r\n        string memory userCohort = assignCohort(msg.sender);\r\n        user.cohort = userCohort;\r\n\r\n        //   \r\n        totalProductActivity[_productType] += _purchaseAmount;\r\n        productBuyersCount[_productType] += 1;\r\n\r\n        emit UserPriceUpdated(msg.sender, _productType, newPrice);\r\n        emit UserTariffPlanUpdated(msg.sender, userTariffPlan);\r\n        emit UserCohortUpdated(msg.sender, userCohort);\r\n        emit MarketActivityUpdated(_productType, totalProductActivity[_productType], productBuyersCount[_productType]);\r\n    }\r\n\r\n    //     \r\n    function calculatePrice(address user, string memory _productType) public view returns (uint) {\r\n        User memory userData = users[user];\r\n\r\n        uint basePrice = basePrices[_productType];\r\n        require(basePrice > 0, \"Base price for this product type is not set\");\r\n\r\n        uint recencyScore = block.timestamp - userData.lastPurchaseTimestamp;\r\n        uint frequencyScore = userData.purchaseFrequency;\r\n        uint monetaryScore = userData.totalSpent;\r\n        uint diversityScore = userData.productVariety;\r\n\r\n        uint recencyFactor = calculateRecencyFactor(recencyScore);\r\n        uint frequencyFactor = calculateFrequencyFactor(frequencyScore);\r\n        uint monetaryFactor = calculateMonetaryFactor(monetaryScore);\r\n        uint diversityFactor = calculateDiversityFactor(diversityScore);\r\n\r\n        return basePrice * recencyFactor * frequencyFactor * monetaryFactor * diversityFactor / 1000;\r\n    }\r\n\r\n    function calculateRecencyFactor(uint recencyScore) internal pure returns (uint) {\r\n        return recencyScore < 7 days ? 3 : recencyScore < 30 days ? 2 : 1;\r\n    }\r\n\r\n    function calculateFrequencyFactor(uint frequencyScore) internal pure returns (uint) {\r\n        return frequencyScore > 10 ? 3 : frequencyScore > 5 ? 2 : 1;\r\n    }\r\n\r\n    function calculateMonetaryFactor(uint monetaryScore) internal pure returns (uint) {\r\n        return monetaryScore > 5000 ether ? 1 : monetaryScore > 1000 ether ? 2 : 3;\r\n    }\r\n\r\n    function calculateDiversityFactor(uint diversityScore) internal pure returns (uint) {\r\n        return diversityScore > 5 ? 3 : diversityScore > 2 ? 2 : 1;\r\n    }\r\n\r\n    //         RFM-D \r\n    function assignTariffPlan(address user) public view returns (string memory) {\r\n        User memory userData = users[user];\r\n\r\n        //      RFM-D\r\n        if (userData.totalSpent > 5000 ether && userData.purchaseFrequency > 10 && userData.productVariety > 5) {\r\n            return \"Premium\";  //  \r\n        } else if (userData.totalSpent > 1000 ether) {\r\n            return \"Standard\"; //  \r\n        } else if (userData.purchaseFrequency > 5) {\r\n            return \"Frequent\"; //    \r\n        } else {\r\n            return \"Basic\"; //  \r\n        }\r\n    }\r\n\r\n    //     \r\n    function assignCohort(address user) public view returns (string memory) {\r\n        User memory userData = users[user];\r\n\r\n        //     ,     \r\n        if (userData.totalSpent > 5000 ether && userData.purchaseFrequency > 10 && userData.productVariety > 5) {\r\n            return \"HighSpender\";  //     \r\n        } else if (userData.totalSpent > 1000 ether) {\r\n            return \"FrequentBuyer\"; //  \r\n        } else {\r\n            return \"LowSpender\"; //  \r\n        }\r\n    }\r\n\r\n    //   \r\n    function updateProductVariety(User storage user, string memory _productType) internal {\r\n        bool isNewProduct = true;\r\n        for (uint i = 0; i < user.purchaseHistory.length; i++) {\r\n            if (keccak256(bytes(user.purchaseHistory[i].product)) == keccak256(bytes(_productType))) {\r\n                isNewProduct = false;\r\n                break;\r\n            }\r\n        }\r\n\r\n        if (isNewProduct) {\r\n            user.productVariety += 1;\r\n        }\r\n    }\r\n\r\n    //   \r\n    function calculateUtility(address user, string memory _productType) public view returns (uint) {\r\n        User memory userData = users[user];\r\n\r\n        //   \r\n        uint basePrice = basePrices[_productType];\r\n        require(basePrice > 0, \"Base price for this product type is not set\");\r\n\r\n        //      \r\n        uint averageActivity = totalProductActivity[_productType] / (productBuyersCount[_productType] > 0 ? productBuyersCount[_productType] : 1);\r\n        uint dynamicFactor = (marketActivityFactor * averageActivity) / 100;\r\n\r\n        //        \r\n        uint diminishingUtility = (basePrice * 10) / (10 + userData.purchaseFrequency);\r\n\r\n        //  ,     (    )\r\n        uint timeDecayFactor = (block.timestamp - userData.lastPurchaseTimestamp) / 365 days; //       \r\n\r\n        //  \r\n        uint utility = diminishingUtility + dynamicFactor - timeDecayFactor;\r\n\r\n        return utility;\r\n    }\r\n\r\n    //        \r\n    function calculateDiscount(address user, string memory _productType) public view returns (uint) {\r\n        User memory userData = users[user];\r\n        string memory cohort = userData.cohort;\r\n\r\n        uint basePrice = basePrices[_productType];\r\n        require(basePrice > 0, \"Base price for this product type is not set\");\r\n\r\n        uint discount;\r\n\r\n        if (keccak256(bytes(cohort)) == keccak256(bytes(\"HighSpender\"))) {\r\n            discount = basePrice * 20 / 100; // 20%   HighSpender\r\n        } else if (keccak256(bytes(cohort)) == keccak256(bytes(\"FrequentBuyer\"))) {\r\n            discount = basePrice *15 / 100; // 15%   FrequentBuyer\r\n        } else if (keccak256(bytes(cohort)) == keccak256(bytes(\"LowSpender\"))) {\r\n            discount = basePrice * 10 / 100; // 10%   LowSpender\r\n        } else {\r\n            discount = basePrice * 5 / 100; // 5%  \r\n        }\r\n\r\n        return discount;\r\n    }\r\n\r\n    //         \r\n    function getUserPrice(address user, string memory _productType) external view returns (uint) {\r\n        return userPrices[user][_productType];\r\n    }\r\n\r\n    //        \r\n    function getBasePrice(string memory _productType) external view returns (uint) {\r\n        return basePrices[_productType];\r\n    }\r\n\r\n    function getUserPurchaseHistory(address user) external view returns (Purchase[] memory) {\r\n        return users[user].purchaseHistory;\r\n    }\r\n}",
  "sourcePath": "D:\\\\ \\blockchain-website\\contracts\\Pricing.sol",
  "compiler": {
    "name": "solc",
    "version": "0.8.0+commit.c7dfd78e.Emscripten.clang"
  },
  "schemaVersion": "3.4.16",
  "updatedAt": "2025-06-16T05:59:36.658Z",
  "networkType": "ethereum",
  "devdoc": {
    "kind": "dev",
    "methods": {},
    "version": 1
  },
  "userdoc": {
    "kind": "user",
    "methods": {},
    "version": 1
  }
}