{
  "contractName": "TransactionModule",
  "abi": [
    {
      "inputs": [
        {
          "internalType": "address",
          "name": "_userRegistrationAddress",
          "type": "address"
        },
        {
          "internalType": "address",
          "name": "_pricingAddress",
          "type": "address"
        }
      ],
      "stateMutability": "nonpayable",
      "type": "constructor"
    },
    {
      "anonymous": false,
      "inputs": [
        {
          "indexed": true,
          "internalType": "address",
          "name": "user",
          "type": "address"
        },
        {
          "indexed": false,
          "internalType": "uint256",
          "name": "amount",
          "type": "uint256"
        },
        {
          "indexed": false,
          "internalType": "string",
          "name": "productType",
          "type": "string"
        },
        {
          "indexed": false,
          "internalType": "uint256",
          "name": "timestamp",
          "type": "uint256"
        }
      ],
      "name": "TransactionConfirmed",
      "type": "event"
    },
    {
      "anonymous": false,
      "inputs": [
        {
          "indexed": true,
          "internalType": "address",
          "name": "user",
          "type": "address"
        },
        {
          "indexed": false,
          "internalType": "uint256",
          "name": "amount",
          "type": "uint256"
        },
        {
          "indexed": false,
          "internalType": "string",
          "name": "productType",
          "type": "string"
        },
        {
          "indexed": false,
          "internalType": "uint256",
          "name": "timestamp",
          "type": "uint256"
        }
      ],
      "name": "TransactionRecorded",
      "type": "event"
    },
    {
      "inputs": [
        {
          "internalType": "address",
          "name": "",
          "type": "address"
        },
        {
          "internalType": "uint256",
          "name": "",
          "type": "uint256"
        }
      ],
      "name": "userTransactions",
      "outputs": [
        {
          "internalType": "address",
          "name": "user",
          "type": "address"
        },
        {
          "internalType": "uint256",
          "name": "amount",
          "type": "uint256"
        },
        {
          "internalType": "string",
          "name": "productType",
          "type": "string"
        },
        {
          "internalType": "uint256",
          "name": "timestamp",
          "type": "uint256"
        },
        {
          "internalType": "bool",
          "name": "confirmed",
          "type": "bool"
        }
      ],
      "stateMutability": "view",
      "type": "function",
      "constant": true
    },
    {
      "inputs": [
        {
          "internalType": "uint256",
          "name": "_amount",
          "type": "uint256"
        },
        {
          "internalType": "string",
          "name": "_productType",
          "type": "string"
        }
      ],
      "name": "recordTransaction",
      "outputs": [],
      "stateMutability": "nonpayable",
      "type": "function"
    },
    {
      "inputs": [
        {
          "internalType": "uint256",
          "name": "_transactionIndex",
          "type": "uint256"
        }
      ],
      "name": "confirmTransaction",
      "outputs": [],
      "stateMutability": "nonpayable",
      "type": "function"
    },
    {
      "inputs": [
        {
          "internalType": "address",
          "name": "_user",
          "type": "address"
        }
      ],
      "name": "getTransactions",
      "outputs": [
        {
          "components": [
            {
              "internalType": "address",
              "name": "user",
              "type": "address"
            },
            {
              "internalType": "uint256",
              "name": "amount",
              "type": "uint256"
            },
            {
              "internalType": "string",
              "name": "productType",
              "type": "string"
            },
            {
              "internalType": "uint256",
              "name": "timestamp",
              "type": "uint256"
            },
            {
              "internalType": "bool",
              "name": "confirmed",
              "type": "bool"
            }
          ],
          "internalType": "struct TransactionModule.Transaction[]",
          "name": "",
          "type": "tuple[]"
        }
      ],
      "stateMutability": "view",
      "type": "function",
      "constant": true
    },
    {
      "inputs": [
        {
          "internalType": "address",
          "name": "_user",
          "type": "address"
        },
        {
          "internalType": "uint256",
          "name": "_transactionIndex",
          "type": "uint256"
        }
      ],
      "name": "isTransactionConfirmed",
      "outputs": [
        {
          "internalType": "bool",
          "name": "",
          "type": "bool"
        }
      ],
      "stateMutability": "view",
      "type": "function",
      "constant": true
    }
  ],
  "bytecode": "0x60806040523480156200001157600080fd5b5060405162001483380380620014838339818101604052810190620000379190620000d7565b816000806101000a81548173ffffffffffffffffffffffffffffffffffffffff021916908373ffffffffffffffffffffffffffffffffffffffff16021790555080600160006101000a81548173ffffffffffffffffffffffffffffffffffffffff021916908373ffffffffffffffffffffffffffffffffffffffff160217905550505062000166565b600081519050620000d1816200014c565b92915050565b60008060408385031215620000eb57600080fd5b6000620000fb85828601620000c0565b92505060206200010e85828601620000c0565b9150509250929050565b600062000125826200012c565b9050919050565b600073ffffffffffffffffffffffffffffffffffffffff82169050919050565b620001578162000118565b81146200016357600080fd5b50565b61130d80620001766000396000f3fe608060405234801561001057600080fd5b50600436106100575760003560e01c80630d1cab4a1461005c5780630f8cda201461007857806360d7aa38146100a8578063b842ec44146100d8578063c01a8c841461010c575b600080fd5b61007660048036038101906100719190610b7a565b610128565b005b610092600480360381019061008d9190610ac3565b6103bb565b60405161009f9190610f89565b60405180910390f35b6100c260048036038101906100bd9190610aec565b610570565b6040516100cf9190610fab565b60405180910390f35b6100f260048036038101906100ed9190610aec565b610694565b604051610103959493929190610f2f565b60405180910390f35b61012660048036038101906101219190610b28565b61079c565b005b6000600160009054906101000a900473ffffffffffffffffffffffffffffffffffffffff1673ffffffffffffffffffffffffffffffffffffffff1663a96068bc33846040518363ffffffff1660e01b8152600401610187929190610eff565b60206040518083038186803b15801561019f57600080fd5b505afa1580156101b3573d6000803e3d6000fd5b505050506040513d601f19601f820116820180604052508101906101d79190610b51565b90508083101561021c576040517f08c379a000000000000000000000000000000000000000000000000000000000815260040161021390610fc6565b60405180910390fd5b60006040518060a001604052803373ffffffffffffffffffffffffffffffffffffffff168152602001858152602001848152602001428152602001600015158152509050600260003373ffffffffffffffffffffffffffffffffffffffff1673ffffffffffffffffffffffffffffffffffffffff16815260200190815260200160002081908060018154018082558091505060019003906000526020600020906005020160009091909190915060008201518160000160006101000a81548173ffffffffffffffffffffffffffffffffffffffff021916908373ffffffffffffffffffffffffffffffffffffffff160217905550602082015181600101556040820151816002019080519060200190610336929190610979565b506060820151816003015560808201518160040160006101000a81548160ff02191690831515021790555050503373ffffffffffffffffffffffffffffffffffffffff167f2f5785d4be239c8c480a14e80a91baa2541b34a57d4fe18d963997e5455266d58585426040516103ad93929190611026565b60405180910390a250505050565b6060600260008373ffffffffffffffffffffffffffffffffffffffff1673ffffffffffffffffffffffffffffffffffffffff168152602001908152602001600020805480602002602001604051908101604052809291908181526020016000905b8282101561056557838290600052602060002090600502016040518060a00160405290816000820160009054906101000a900473ffffffffffffffffffffffffffffffffffffffff1673ffffffffffffffffffffffffffffffffffffffff1673ffffffffffffffffffffffffffffffffffffffff168152602001600182015481526020016002820180546104af90611208565b80601f01602080910402602001604051908101604052809291908181526020018280546104db90611208565b80156105285780601f106104fd57610100808354040283529160200191610528565b820191906000526020600020905b81548152906001019060200180831161050b57829003601f168201915b50505050508152602001600382015481526020016004820160009054906101000a900460ff1615151515815250508152602001906001019061041c565b505050509050919050565b6000600260008473ffffffffffffffffffffffffffffffffffffffff1673ffffffffffffffffffffffffffffffffffffffff1681526020019081526020016000208054905082106105f6576040517f08c379a00000000000000000000000000000000000000000000000000000000081526004016105ed90611006565b60405180910390fd5b600260008473ffffffffffffffffffffffffffffffffffffffff1673ffffffffffffffffffffffffffffffffffffffff168152602001908152602001600020828154811061066d577f4e487b7100000000000000000000000000000000000000000000000000000000600052603260045260246000fd5b906000526020600020906005020160040160009054906101000a900460ff16905092915050565b600260205281600052604060002081815481106106b057600080fd5b9060005260206000209060050201600091509150508060000160009054906101000a900473ffffffffffffffffffffffffffffffffffffffff169080600101549080600201805461070090611208565b80601f016020809104026020016040519081016040528092919081815260200182805461072c90611208565b80156107795780601f1061074e57610100808354040283529160200191610779565b820191906000526020600020905b81548152906001019060200180831161075c57829003601f168201915b5050505050908060030154908060040160009054906101000a900460ff16905085565b600260003373ffffffffffffffffffffffffffffffffffffffff1673ffffffffffffffffffffffffffffffffffffffff168152602001908152602001600020805490508110610820576040517f08c379a000000000000000000000000000000000000000000000000000000000815260040161081790611006565b60405180910390fd5b6000600260003373ffffffffffffffffffffffffffffffffffffffff1673ffffffffffffffffffffffffffffffffffffffff1681526020019081526020016000208281548110610899577f4e487b7100000000000000000000000000000000000000000000000000000000600052603260045260246000fd5b906000526020600020906005020190508060040160009054906101000a900460ff16156108fb576040517f08c379a00000000000000000000000000000000000000000000000000000000081526004016108f290610fe6565b60405180910390fd5b60018160040160006101000a81548160ff0219169083151502179055503373ffffffffffffffffffffffffffffffffffffffff167fe7753c69cae7def4873b72bddb7a2d1b3ef146459f7ccdf7fc558a18c99a5a1b826001015483600201846003015460405161096d93929190611064565b60405180910390a25050565b82805461098590611208565b90600052602060002090601f0160209004810192826109a757600085556109ee565b82601f106109c057805160ff19168380011785556109ee565b828001600101855582156109ee579182015b828111156109ed5782518255916020019190600101906109d2565b5b5090506109fb91906109ff565b5090565b5b80821115610a18576000816000905550600101610a00565b5090565b6000610a2f610a2a846110d3565b6110a2565b905082815260208101848484011115610a4757600080fd5b610a528482856111c6565b509392505050565b600081359050610a69816112a9565b92915050565b600082601f830112610a8057600080fd5b8135610a90848260208601610a1c565b91505092915050565b600081359050610aa8816112c0565b92915050565b600081519050610abd816112c0565b92915050565b600060208284031215610ad557600080fd5b6000610ae384828501610a5a565b91505092915050565b60008060408385031215610aff57600080fd5b6000610b0d85828601610a5a565b9250506020610b1e85828601610a99565b9150509250929050565b600060208284031215610b3a57600080fd5b6000610b4884828501610a99565b91505092915050565b600060208284031215610b6357600080fd5b6000610b7184828501610aae565b91505092915050565b60008060408385031215610b8d57600080fd5b6000610b9b85828601610a99565b925050602083013567ffffffffffffffff811115610bb857600080fd5b610bc485828601610a6f565b9150509250929050565b6000610bda8383610e6b565b905092915050565b610beb8161117e565b82525050565b610bfa8161117e565b82525050565b6000610c0b82611128565b610c15818561114b565b935083602082028501610c2785611103565b8060005b85811015610c635784840389528151610c448582610bce565b9450610c4f8361113e565b925060208a01995050600181019050610c2b565b50829750879550505050505092915050565b610c7e81611190565b82525050565b610c8d81611190565b82525050565b6000610c9e82611133565b610ca8818561115c565b9350610cb88185602086016111d5565b610cc181611298565b840191505092915050565b6000610cd782611133565b610ce1818561116d565b9350610cf18185602086016111d5565b610cfa81611298565b840191505092915050565b60008154610d1281611208565b610d1c818661116d565b94506001821660008114610d375760018114610d4957610d7c565b60ff1983168652602086019350610d7c565b610d5285611113565b60005b83811015610d7457815481890152600182019150602081019050610d55565b808801955050505b50505092915050565b6000610d9260268361116d565b91507f416d6f756e74206973206c657373207468616e20706572736f6e616c697a656460008301527f20707269636500000000000000000000000000000000000000000000000000006020830152604082019050919050565b6000610df8601d8361116d565b91507f5472616e73616374696f6e20616c726561647920636f6e6669726d65640000006000830152602082019050919050565b6000610e38601a8361116d565b91507f5472616e73616374696f6e20646f6573206e6f742065786973740000000000006000830152602082019050919050565b600060a083016000830151610e836000860182610be2565b506020830151610e966020860182610ee1565b5060408301518482036040860152610eae8282610c93565b9150506060830151610ec36060860182610ee1565b506080830151610ed66080860182610c75565b508091505092915050565b610eea816111bc565b82525050565b610ef9816111bc565b82525050565b6000604082019050610f146000830185610bf1565b8181036020830152610f268184610ccc565b90509392505050565b600060a082019050610f446000830188610bf1565b610f516020830187610ef0565b8181036040830152610f638186610ccc565b9050610f726060830185610ef0565b610f7f6080830184610c84565b9695505050505050565b60006020820190508181036000830152610fa38184610c00565b905092915050565b6000602082019050610fc06000830184610c84565b92915050565b60006020820190508181036000830152610fdf81610d85565b9050919050565b60006020820190508181036000830152610fff81610deb565b9050919050565b6000602082019050818103600083015261101f81610e2b565b9050919050565b600060608201905061103b6000830186610ef0565b818103602083015261104d8185610ccc565b905061105c6040830184610ef0565b949350505050565b60006060820190506110796000830186610ef0565b818103602083015261108b8185610d05565b905061109a6040830184610ef0565b949350505050565b6000604051905081810181811067ffffffffffffffff821117156110c9576110c8611269565b5b8060405250919050565b600067ffffffffffffffff8211156110ee576110ed611269565b5b601f19601f8301169050602081019050919050565b6000819050602082019050919050565b60008190508160005260206000209050919050565b600081519050919050565b600081519050919050565b6000602082019050919050565b600082825260208201905092915050565b600082825260208201905092915050565b600082825260208201905092915050565b60006111898261119c565b9050919050565b60008115159050919050565b600073ffffffffffffffffffffffffffffffffffffffff82169050919050565b6000819050919050565b82818337600083830152505050565b60005b838110156111f35780820151818401526020810190506111d8565b83811115611202576000848401525b50505050565b6000600282049050600182168061122057607f821691505b602082108114156112345761123361123a565b5b50919050565b7f4e487b7100000000000000000000000000000000000000000000000000000000600052602260045260246000fd5b7f4e487b7100000000000000000000000000000000000000000000000000000000600052604160045260246000fd5b6000601f19601f8301169050919050565b6112b28161117e565b81146112bd57600080fd5b50565b6112c9816111bc565b81146112d457600080fd5b5056fea264697066735822122040c06b6a11c4ffdedc4413baa1c03548575507834ce2e1b2dae68f19867f957664736f6c63430008000033",
  "immutableReferences": {},
  "source": "// SPDX-License-Identifier: GPL-3.0\r\npragma solidity ^0.8.0;\r\n\r\nimport \"./UserRegistration.sol\";\r\nimport \"./Pricing.sol\";\r\n\r\ncontract TransactionModule {\r\n    UserRegistration private userRegistration;\r\n    Pricing private pricing;\r\n\r\n    //      \r\n    struct Transaction {\r\n        address user;        // ,   \r\n        uint amount;         //  \r\n        string productType;  //  \r\n        uint timestamp;      //  \r\n        bool confirmed;      //   \r\n    }\r\n\r\n    //     \r\n    mapping(address => Transaction[]) public userTransactions;\r\n\r\n    //    \r\n    event TransactionRecorded(address indexed user, uint amount, string productType, uint timestamp);\r\n    //    \r\n    event TransactionConfirmed(address indexed user, uint amount, string productType, uint timestamp);\r\n\r\n    //   UserRegistration  Pricing\r\n    constructor(address _userRegistrationAddress, address _pricingAddress) {\r\n        userRegistration = UserRegistration(_userRegistrationAddress);\r\n        pricing = Pricing(_pricingAddress);\r\n    }\r\n\r\n\r\n    //  \r\n    function recordTransaction(uint _amount, string memory _productType) external {\r\n        \r\n        uint userPrice = pricing.getUserPrice(msg.sender, _productType);\r\n        \r\n        // ,         \r\n        require(_amount >= userPrice, \"Amount is less than personalized price\");\r\n\r\n        //    \r\n        Transaction memory newTransaction = Transaction({\r\n            user: msg.sender,\r\n            amount: _amount,\r\n            productType: _productType,\r\n            timestamp: block.timestamp,\r\n            confirmed: false\r\n        });\r\n        \r\n        //    \r\n        userTransactions[msg.sender].push(newTransaction);\r\n        \r\n        //     \r\n        emit TransactionRecorded(msg.sender, _amount, _productType, block.timestamp);\r\n    }\r\n\r\n    //  \r\n    function confirmTransaction(uint _transactionIndex) external {\r\n        // ,     \r\n        require(_transactionIndex < userTransactions[msg.sender].length, \"Transaction does not exist\");\r\n\r\n        //  \r\n        Transaction storage transaction = userTransactions[msg.sender][_transactionIndex];\r\n\r\n        // ,      \r\n        require(!transaction.confirmed, \"Transaction already confirmed\");\r\n\r\n        //   \r\n        transaction.confirmed = true;\r\n\r\n        //     \r\n        emit TransactionConfirmed(msg.sender, transaction.amount, transaction.productType, transaction.timestamp);\r\n    }\r\n\r\n    //   \r\n    function getTransactions(address _user) external view returns (Transaction[] memory) {\r\n        return userTransactions[_user];\r\n    }\r\n\r\n    //    \r\n    function isTransactionConfirmed(address _user, uint _transactionIndex) external view returns (bool) {\r\n        require(_transactionIndex < userTransactions[_user].length, \"Transaction does not exist\");\r\n        return userTransactions[_user][_transactionIndex].confirmed;\r\n    }\r\n}\r\n",
  "sourcePath": "D:\\\\ \\blockchain-website\\contracts\\TransactionModule.sol",
  "compiler": {
    "name": "solc",
    "version": "0.8.0+commit.c7dfd78e.Emscripten.clang"
  },
  "schemaVersion": "3.4.16",
  "updatedAt": "2025-06-16T05:59:36.680Z",
  "networkType": "ethereum",
  "devdoc": {
    "kind": "dev",
    "methods": {},
    "version": 1
  },
  "userdoc": {
    "kind": "user",
    "methods": {},
    "version": 1
  }
}