{
  "contractName": "UserRegistration",
  "abi": [
    {
      "anonymous": false,
      "inputs": [
        {
          "indexed": true,
          "internalType": "address",
          "name": "userAddress",
          "type": "address"
        }
      ],
      "name": "PasswordUpdated",
      "type": "event"
    },
    {
      "anonymous": false,
      "inputs": [
        {
          "indexed": true,
          "internalType": "address",
          "name": "userAddress",
          "type": "address"
        }
      ],
      "name": "UserDeleted",
      "type": "event"
    },
    {
      "anonymous": false,
      "inputs": [
        {
          "indexed": true,
          "internalType": "address",
          "name": "userAddress",
          "type": "address"
        },
        {
          "indexed": false,
          "internalType": "uint256",
          "name": "userId",
          "type": "uint256"
        },
        {
          "indexed": false,
          "internalType": "string",
          "name": "email",
          "type": "string"
        },
        {
          "indexed": false,
          "internalType": "string",
          "name": "name",
          "type": "string"
        }
      ],
      "name": "UserRegistered",
      "type": "event"
    },
    {
      "anonymous": false,
      "inputs": [
        {
          "indexed": true,
          "internalType": "address",
          "name": "userAddress",
          "type": "address"
        },
        {
          "indexed": false,
          "internalType": "string",
          "name": "newEmail",
          "type": "string"
        },
        {
          "indexed": false,
          "internalType": "string",
          "name": "newName",
          "type": "string"
        }
      ],
      "name": "UserUpdated",
      "type": "event"
    },
    {
      "inputs": [
        {
          "internalType": "string",
          "name": "_email",
          "type": "string"
        },
        {
          "internalType": "string",
          "name": "_name",
          "type": "string"
        }
      ],
      "name": "registerUser",
      "outputs": [
        {
          "internalType": "bool",
          "name": "success",
          "type": "bool"
        }
      ],
      "stateMutability": "nonpayable",
      "type": "function"
    },
    {
      "inputs": [
        {
          "internalType": "string",
          "name": "_newEmail",
          "type": "string"
        },
        {
          "internalType": "string",
          "name": "_newName",
          "type": "string"
        }
      ],
      "name": "updateUser",
      "outputs": [
        {
          "internalType": "bool",
          "name": "success",
          "type": "bool"
        }
      ],
      "stateMutability": "nonpayable",
      "type": "function"
    },
    {
      "inputs": [],
      "name": "deleteUser",
      "outputs": [
        {
          "internalType": "bool",
          "name": "success",
          "type": "bool"
        }
      ],
      "stateMutability": "nonpayable",
      "type": "function"
    },
    {
      "inputs": [
        {
          "internalType": "address",
          "name": "_userAddress",
          "type": "address"
        }
      ],
      "name": "getUser",
      "outputs": [
        {
          "internalType": "uint256",
          "name": "userId",
          "type": "uint256"
        },
        {
          "internalType": "string",
          "name": "email",
          "type": "string"
        },
        {
          "internalType": "string",
          "name": "name",
          "type": "string"
        },
        {
          "internalType": "string",
          "name": "passwordHash",
          "type": "string"
        }
      ],
      "stateMutability": "view",
      "type": "function",
      "constant": true
    },
    {
      "inputs": [
        {
          "internalType": "string",
          "name": "_newPasswordHash",
          "type": "string"
        }
      ],
      "name": "updateUserPassword",
      "outputs": [
        {
          "internalType": "bool",
          "name": "success",
          "type": "bool"
        }
      ],
      "stateMutability": "nonpayable",
      "type": "function"
    }
  ],
  "bytecode": "0x6080604052600160025534801561001557600080fd5b50611770806100256000396000f3fe608060405234801561001057600080fd5b50600436106100575760003560e01c8063026ff05e1461005c5780631d2e4afd1461007a5780636f77926b146100aa5780637631754a146100dd578063dd4a24251461010d575b600080fd5b61006461013d565b6040516100719190611312565b60405180910390f35b610094600480360381019061008f9190610f35565b6102fc565b6040516100a19190611312565b60405180910390f35b6100c460048036038101906100bf9190610ecb565b6105f7565b6040516100d49493929190611469565b60405180910390f35b6100f760048036038101906100f29190610ef4565b6108b3565b6040516101049190611312565b60405180910390f35b61012760048036038101906101229190610f35565b6109da565b6040516101349190611312565b60405180910390f35b6000806000803373ffffffffffffffffffffffffffffffffffffffff1673ffffffffffffffffffffffffffffffffffffffff16815260200190815260200160002060000154116101c2576040517f08c379a00000000000000000000000000000000000000000000000000000000081526004016101b9906113a4565b60405180910390fd5b600060016000803373ffffffffffffffffffffffffffffffffffffffff1673ffffffffffffffffffffffffffffffffffffffff16815260200190815260200160002060010160405161021491906112fb565b908152602001604051809103902060006101000a81548160ff0219169083151502179055506000803373ffffffffffffffffffffffffffffffffffffffff1673ffffffffffffffffffffffffffffffffffffffff1681526020019081526020016000206000808201600090556001820160006102909190610d6b565b6002820160006102a09190610d6b565b6003820160006102b09190610d6b565b50503373ffffffffffffffffffffffffffffffffffffffff167f4bc56f1321288dfb5b416cb3a7fd188723979f9e866c91d88eccf7fca039d03960405160405180910390a26001905090565b6000600583511015610343576040517f08c379a000000000000000000000000000000000000000000000000000000000815260040161033a90611384565b60405180910390fd5b6000825111610387576040517f08c379a000000000000000000000000000000000000000000000000000000000815260040161037e90611364565b60405180910390fd5b60018360405161039791906112e4565b908152602001604051809103902060009054906101000a900460ff16156103f3576040517f08c379a00000000000000000000000000000000000000000000000000000000081526004016103ea90611404565b60405180910390fd5b60008060003373ffffffffffffffffffffffffffffffffffffffff1673ffffffffffffffffffffffffffffffffffffffff1681526020019081526020016000206000015414610477576040517f08c379a000000000000000000000000000000000000000000000000000000000815260040161046e906113e4565b60405180910390fd5b60006002600081548092919061048c9061163c565b9190505590506040518060800160405280828152602001858152602001848152602001604051806020016040528060008152508152506000803373ffffffffffffffffffffffffffffffffffffffff1673ffffffffffffffffffffffffffffffffffffffff168152602001908152602001600020600082015181600001556020820151816001019080519060200190610526929190610dab565b506040820151816002019080519060200190610543929190610dab565b506060820151816003019080519060200190610560929190610dab565b509050506001808560405161057591906112e4565b908152602001604051809103902060006101000a81548160ff0219169083151502179055503373ffffffffffffffffffffffffffffffffffffffff167fd26e1f23de0ec990e6830acd7467dd8d67c062bff02251f8d836bcc3ce62479f8286866040516105e493929190611424565b60405180910390a2600191505092915050565b6000606080606060008060008773ffffffffffffffffffffffffffffffffffffffff1673ffffffffffffffffffffffffffffffffffffffff1681526020019081526020016000206000015411610682576040517f08c379a0000000000000000000000000000000000000000000000000000000008152600401610679906113a4565b60405180910390fd5b60008060008773ffffffffffffffffffffffffffffffffffffffff1673ffffffffffffffffffffffffffffffffffffffff168152602001908152602001600020604051806080016040529081600082015481526020016001820180546106e79061160a565b80601f01602080910402602001604051908101604052809291908181526020018280546107139061160a565b80156107605780601f1061073557610100808354040283529160200191610760565b820191906000526020600020905b81548152906001019060200180831161074357829003601f168201915b505050505081526020016002820180546107799061160a565b80601f01602080910402602001604051908101604052809291908181526020018280546107a59061160a565b80156107f25780601f106107c7576101008083540402835291602001916107f2565b820191906000526020600020905b8154815290600101906020018083116107d557829003601f168201915b5050505050815260200160038201805461080b9061160a565b80601f01602080910402602001604051908101604052809291908181526020018280546108379061160a565b80156108845780601f1061085957610100808354040283529160200191610884565b820191906000526020600020905b81548152906001019060200180831161086757829003601f168201915b505050505081525050905080600001518160200151826040015183606001519450945094509450509193509193565b6000806000803373ffffffffffffffffffffffffffffffffffffffff1673ffffffffffffffffffffffffffffffffffffffff1681526020019081526020016000206000015411610938576040517f08c379a000000000000000000000000000000000000000000000000000000000815260040161092f906113a4565b60405180910390fd5b816000803373ffffffffffffffffffffffffffffffffffffffff1673ffffffffffffffffffffffffffffffffffffffff168152602001908152602001600020600301908051906020019061098d929190610dab565b503373ffffffffffffffffffffffffffffffffffffffff167f59d5e5502067ddbcd17d342059dce1fd469d88df519507513e7b392a068a936160405160405180910390a260019050919050565b6000806000803373ffffffffffffffffffffffffffffffffffffffff1673ffffffffffffffffffffffffffffffffffffffff1681526020019081526020016000206000015411610a5f576040517f08c379a0000000000000000000000000000000000000000000000000000000008152600401610a56906113a4565b60405180910390fd5b600583511015610aa4576040517f08c379a0000000000000000000000000000000000000000000000000000000008152600401610a9b90611384565b60405180910390fd5b6000825111610ae8576040517f08c379a0000000000000000000000000000000000000000000000000000000008152600401610adf90611364565b60405180910390fd5b82805190602001206000803373ffffffffffffffffffffffffffffffffffffffff1673ffffffffffffffffffffffffffffffffffffffff168152602001908152602001600020600101604051610b3e91906112cd565b604051809103902014610c6557600183604051610b5b91906112e4565b908152602001604051809103902060009054906101000a900460ff1615610bb7576040517f08c379a0000000000000000000000000000000000000000000000000000000008152600401610bae906113c4565b60405180910390fd5b600060016000803373ffffffffffffffffffffffffffffffffffffffff1673ffffffffffffffffffffffffffffffffffffffff168152602001908152602001600020600101604051610c0991906112fb565b908152602001604051809103902060006101000a81548160ff02191690831515021790555060018084604051610c3f91906112e4565b908152602001604051809103902060006101000a81548160ff0219169083151502179055505b826000803373ffffffffffffffffffffffffffffffffffffffff1673ffffffffffffffffffffffffffffffffffffffff1681526020019081526020016000206001019080519060200190610cba929190610dab565b50816000803373ffffffffffffffffffffffffffffffffffffffff1673ffffffffffffffffffffffffffffffffffffffff1681526020019081526020016000206002019080519060200190610d10929190610dab565b503373ffffffffffffffffffffffffffffffffffffffff167fe5d18d6612696bff7df1db8015eac613241613297fa2ba2783993e4fd0e76f3d8484604051610d5992919061132d565b60405180910390a26001905092915050565b508054610d779061160a565b6000825580601f10610d895750610da8565b601f016020900490600052602060002090810190610da79190610e31565b5b50565b828054610db79061160a565b90600052602060002090601f016020900481019282610dd95760008555610e20565b82601f10610df257805160ff1916838001178555610e20565b82800160010185558215610e20579182015b82811115610e1f578251825591602001919060010190610e04565b5b509050610e2d9190610e31565b5090565b5b80821115610e4a576000816000905550600101610e32565b5090565b6000610e61610e5c846114f4565b6114c3565b905082815260208101848484011115610e7957600080fd5b610e848482856115c8565b509392505050565b600081359050610e9b81611723565b92915050565b600082601f830112610eb257600080fd5b8135610ec2848260208601610e4e565b91505092915050565b600060208284031215610edd57600080fd5b6000610eeb84828501610e8c565b91505092915050565b600060208284031215610f0657600080fd5b600082013567ffffffffffffffff811115610f2057600080fd5b610f2c84828501610ea1565b91505092915050565b60008060408385031215610f4857600080fd5b600083013567ffffffffffffffff811115610f6257600080fd5b610f6e85828601610ea1565b925050602083013567ffffffffffffffff811115610f8b57600080fd5b610f9785828601610ea1565b9150509250929050565b610faa81611592565b82525050565b60008154610fbd8161160a565b610fc78186611559565b94506001821660008114610fe25760018114610ff357611026565b60ff19831686528186019350611026565b610ffc85611524565b60005b8381101561101e57815481890152600182019150602081019050610fff565b838801955050505b50505092915050565b600061103a8261154e565b6110448185611564565b93506110548185602086016115d7565b61105d81611712565b840191505092915050565b60006110738261154e565b61107d8185611575565b935061108d8185602086016115d7565b80840191505092915050565b600081546110a68161160a565b6110b08186611575565b945060018216600081146110cb57600181146110dc5761110f565b60ff1983168652818601935061110f565b6110e585611539565b60005b83811015611107578154818901526001820191506020810190506110e8565b838801955050505b50505092915050565b6000611125601483611564565b91507f4e616d652063616e6e6f7420626520656d7074790000000000000000000000006000830152602082019050919050565b6000611165602883611564565b91507f456d61696c206d757374206265206174206c656173742035206368617261637460008301527f657273206c6f6e670000000000000000000000000000000000000000000000006020830152604082019050919050565b60006111cb601383611564565b91507f5573657220646f6573206e6f74206578697374000000000000000000000000006000830152602082019050919050565b600061120b601f83611564565b91507f4e657720656d61696c20697320616c72656164792072656769737465726564006000830152602082019050919050565b600061124b601a83611564565b91507f5573657220697320616c726561647920726567697374657265640000000000006000830152602082019050919050565b600061128b601b83611564565b91507f456d61696c20697320616c7265616479207265676973746572656400000000006000830152602082019050919050565b6112c7816115be565b82525050565b60006112d98284610fb0565b915081905092915050565b60006112f08284611068565b915081905092915050565b60006113078284611099565b915081905092915050565b60006020820190506113276000830184610fa1565b92915050565b60006040820190508181036000830152611347818561102f565b9050818103602083015261135b818461102f565b90509392505050565b6000602082019050818103600083015261137d81611118565b9050919050565b6000602082019050818103600083015261139d81611158565b9050919050565b600060208201905081810360008301526113bd816111be565b9050919050565b600060208201905081810360008301526113dd816111fe565b9050919050565b600060208201905081810360008301526113fd8161123e565b9050919050565b6000602082019050818103600083015261141d8161127e565b9050919050565b600060608201905061143960008301866112be565b818103602083015261144b818561102f565b9050818103604083015261145f818461102f565b9050949350505050565b600060808201905061147e60008301876112be565b8181036020830152611490818661102f565b905081810360408301526114a4818561102f565b905081810360608301526114b8818461102f565b905095945050505050565b6000604051905081810181811067ffffffffffffffff821117156114ea576114e96116e3565b5b8060405250919050565b600067ffffffffffffffff82111561150f5761150e6116e3565b5b601f19601f8301169050602081019050919050565b60008190508160005260206000209050919050565b60008190508160005260206000209050919050565b600081519050919050565b600081905092915050565b600082825260208201905092915050565b600081905092915050565b600061158b8261159e565b9050919050565b60008115159050919050565b600073ffffffffffffffffffffffffffffffffffffffff82169050919050565b6000819050919050565b82818337600083830152505050565b60005b838110156115f55780820151818401526020810190506115da565b83811115611604576000848401525b50505050565b6000600282049050600182168061162257607f821691505b60208210811415611636576116356116b4565b5b50919050565b6000611647826115be565b91507fffffffffffffffffffffffffffffffffffffffffffffffffffffffffffffffff82141561167a57611679611685565b5b600182019050919050565b7f4e487b7100000000000000000000000000000000000000000000000000000000600052601160045260246000fd5b7f4e487b7100000000000000000000000000000000000000000000000000000000600052602260045260246000fd5b7f4e487b7100000000000000000000000000000000000000000000000000000000600052604160045260246000fd5b6000601f19601f8301169050919050565b61172c81611580565b811461173757600080fd5b5056fea2646970667358221220e9560fca840111f180ed69002e9cddeff20ba281e9a06e6f3fadf34d6e28594064736f6c63430008000033",
  "immutableReferences": {},
  "source": "// SPDX-License-Identifier: GPL-3.0\npragma solidity ^0.8.0;\n\ncontract UserRegistration {\n    struct User {\n        uint256 userId; //   \n        string email;\n        string name;\n        string passwordHash; // Add this field\n    }\n\n    mapping(address => User) private users; //     \n    mapping(string => bool) private registeredEmails; //    email\n    uint256 private nextUserId = 1; //     \n\n    event UserRegistered(address indexed userAddress, uint256 userId, string email, string name);\n    event UserUpdated(address indexed userAddress, string newEmail, string newName);\n    event UserDeleted(address indexed userAddress);\n    event PasswordUpdated(address indexed userAddress);\n\n    //   \n    function registerUser(string memory _email, string memory _name)\n        external\n        returns (bool success)\n    {\n        require(bytes(_email).length >= 5, \"Email must be at least 5 characters long\");\n        require(bytes(_name).length > 0, \"Name cannot be empty\");\n        require(!registeredEmails[_email], \"Email is already registered\");\n        require(users[msg.sender].userId == 0, \"User is already registered\");\n\n        uint256 userId = nextUserId++; //   \n\n        users[msg.sender] = User(userId, _email, _name, \"\"); // Initialize passwordHash\n        registeredEmails[_email] = true;\n\n        emit UserRegistered(msg.sender, userId, _email, _name);\n        return true;\n    }\n\n    //   \n    function updateUser(string memory _newEmail, string memory _newName)\n        external\n        returns (bool success)\n    {\n        require(users[msg.sender].userId > 0, \"User does not exist\");\n        require(bytes(_newEmail).length >= 5, \"Email must be at least 5 characters long\");\n        require(bytes(_newName).length > 0, \"Name cannot be empty\");\n\n        //  email ,   \n        if (keccak256(bytes(users[msg.sender].email)) != keccak256(bytes(_newEmail))) {\n            require(!registeredEmails[_newEmail], \"New email is already registered\");\n            registeredEmails[users[msg.sender].email] = false; //   email\n            registeredEmails[_newEmail] = true; //   email\n        }\n\n        //   \n        users[msg.sender].email = _newEmail;\n        users[msg.sender].name = _newName;\n\n        emit UserUpdated(msg.sender, _newEmail, _newName);\n        return true;\n    }\n\n    //  \n    function deleteUser() external returns (bool success) {\n        require(users[msg.sender].userId > 0, \"User does not exist\");\n\n        //   \n        registeredEmails[users[msg.sender].email] = false; //  email\n        delete users[msg.sender]; //  \n\n        emit UserDeleted(msg.sender);\n        return true;\n    }\n\n    //     \n    function getUser(address _userAddress)\n        external\n        view\n        returns (\n            uint256 userId,\n            string memory email,\n            string memory name,\n            string memory passwordHash\n        )\n    {\n        require(users[_userAddress].userId > 0, \"User does not exist\");\n        User memory user = users[_userAddress];\n        return (user.userId, user.email, user.name, user.passwordHash);\n    }\n\n    // Update password\n    function updateUserPassword(string memory _newPasswordHash) \n        external \n        returns (bool success) \n    {\n        require(users[msg.sender].userId > 0, \"User does not exist\");\n        \n        // Update password hash\n        users[msg.sender].passwordHash = _newPasswordHash;\n        \n        // Emit event\n        emit PasswordUpdated(msg.sender);\n        \n        return true;\n    }\n}\n\n",
  "sourcePath": "D:\\\\ \\blockchain-website\\contracts\\UserRegistration.sol",
  "compiler": {
    "name": "solc",
    "version": "0.8.0+commit.c7dfd78e.Emscripten.clang"
  },
  "schemaVersion": "3.4.16",
  "updatedAt": "2025-06-16T05:59:36.636Z",
  "networkType": "ethereum",
  "devdoc": {
    "kind": "dev",
    "methods": {},
    "version": 1
  },
  "userdoc": {
    "kind": "user",
    "methods": {},
    "version": 1
  }
}